S01300004D617374657220636F64652E73726563EA
S11300000C9434000C9451000C9451000C94510045
S11300100C9451000C9451000C9451000C94510018
S11300200C9451000C9451000C94AD080C945100A4
S11300300C9451000C9451000C9451000C945100F8
S11300400C9451000C9451000C9451000C945100E8
S11300500C945100E6063A07BA07C007C607CC0756
S1130060D6077C07DC07E10611241FBECFE5D8E0E4
S1130070DEBFCDBF12E0A0E6B0E0ECE2F4E102C0E6
S113008005900D92AA38B107D9F722E0AAE8B2E0A8
S113009001C01D92AD38B207E1F70E94C5030C946C
S11300A0140A0C940000823419F118F4813439F0E4
S11300B008958334B1F1843409F44CC00895413077
S11300C059F42AB381E090E002C0880F991F6A9521
S11300D0E2F7822B8ABB08952AB381E090E002C044
S11300E0880F991F6A95E2F7809582238ABB089549
S11300F0413059F427B381E090E002C0880F991F82
S11301006A95E2F7822B87BB089527B381E090E0DC
S113011002C0880F991F6A95E2F78095822387BBF6
S11301200895413059F424B381E090E002C0880F6F
S1130130991F6A95E2F7822B84BB089524B381E06A
S113014090E002C0880F991F6A95E2F78095822398
S113015084BB0895413059F421B381E090E002C09A
S1130160880F991F6A95E2F7822B81BB089521B30A
S113017081E090E002C0880F991F6A95E2F78095AC
S1130180822381BB0895823419F118F4813439F043
S113019008958334B1F1843409F44CC00895413096
S11301A059F42BB381E090E002C0880F991F6A953F
S11301B0E2F7822B8BBB08952BB381E090E002C061
S11301C0880F991F6A95E2F7809582238BBB089567
S11301D0413059F428B381E090E002C0880F991FA0
S11301E06A95E2F7822B88BB089528B381E090E0FA
S11301F002C0880F991F6A95E2F78095822388BB15
S11302000895413059F425B381E090E002C0880F8D
S1130210991F6A95E2F7822B85BB089525B381E087
S113022090E002C0880F991F6A95E2F780958223B7
S113023085BB0895413059F422B381E090E002C0B7
S1130240880F991F6A95E2F7822B82BB089522B327
S113025081E090E002C0880F991F6A95E2F78095CB
S1130260822382BB08958234D9F018F4813431F0AA
S11302704DC0833439F18434B9F148C029B381E0E5
S113028090E0062E02C0880F991F0A94E2F730E02E
S11302908223932302C0959587956A95E2F7089582
S11302A026B381E090E0062E02C0880F991F0A94BD
S11302B0E2F730E08223932302C0959587956A95EF
S11302C0E2F7089523B381E090E0062E02C0880F80
S11302D0991F0A94E2F730E08223932302C0959594
S11302E087956A95E2F7089520B381E090E0062EA1
S11302F002C0880F991F0A94E2F730E08223932307
S113030002C0959587956A95E2F7089580E008956F
S1130310823459F018F4813431F00895833439F07B
S1130320843439F008956BBB089568BB089565BBA8
S1130330089562BB0895823461F118F4813441F068
S11303400895833409F446C0843409F464C00895DC
S1130350413099F480B78B7F80BF2AB381E090E06D
S113036002C0880F991F6A95E2F7982F90959223FF
S11303709ABB9BB3892B8BBB08952BB381E090E090
S113038002C0880F991F6A95E2F7809582238BBB80
S11303900895413099F480B78B7F80BF27B381E003
S11303A090E002C0880F991F6A95E2F7982F909504
S11303B0922397BB98B3892B88BB089528B381E017
S11303C090E002C0880F991F6A95E2F78095822316
S11303D088BB0895413099F480B78B7F80BF24B3E4
S11303E081E090E002C0880F991F6A95E2F7982F88
S11303F09095922394BB95B3892B85BB089525B31F
S113040081E090E002C0880F991F6A95E2F7809519
S1130410822385BB0895413099F480B78B7F80BFD8
S113042021B381E090E002C0880F991F6A95E2F73A
S1130430982F9095922391BB92B3892B82BB0895F8
S113044022B381E090E002C0880F991F6A95E2F719
S11304508095822382BB0895E199FECF9FBB8EBB1A
S1130460E09A8DB30895E199FECF4115510591F0BD
S1130470460F571FFB019C01261B370BB9019B013B
S11304802E0F3F1F3FBB2EBBE09A9DB39193E41701
S1130490F507A9F70895E199FECF9FBB8EBBE09ABB
S11304A08DB3861719F06DBBE29AE19A0895411550
S11304B05105C9F0460F571FFB019C01261B370B42
S11304C0B901E199FECF9B012E0F3F1F3FBB2EBB0D
S11304D0E09A2DB39191291719F09DBBE29AE19A04
S11304E0E417F50771F7089541E060E084E40E94A1
S11304F0530041E061E084E40E94530041E062E083
S113050084E40E94530041E063E084E40E945300C9
S113051040E064E084E40E94530040E065E084E449
S11305200E94530040E066E084E40E94530040E0EF
S113053067E084E40E94530041E064E084E40E94A4
S11305409B0141E065E084E40E949B0141E066E098
S113055084E40E949B0141E067E084E40E949B01E3
S11305600895EF92FF920F931F93CF93DF93CDB72C
S1130570DEB760970FB6F894DEBF0FBECDBF80E143
S1130580E0E6F0E0DE01119601900D928A95E1F724
S1130590E12CF12C0FEF41E060E084E40E94C30001
S11305A041E061E084E40E94C30041E062E084E44D
S11305B00E94C30041E063E084E40E94C3002FEF83
S11305C089EF90E0215080409040E1F700C00000A6
S11305D040E06E2D84E40E94C30010E064E0610FEB
S11305E084E40E94330181110FC0F701EE0FFF1F55
S11305F0EE0FFF1F81E090E08C0F9D1FE80FF91FA5
S1130600E10FF11D008103C01F5F143039F79FEF24
S1130610E91AF90A24E0E216F10409F0BCCF802FAC
S113062060960FB6F894DEBF0FBECDBFDF91CF91B9
S11306301F910F91FF90EF90089541E060E082E4F4
S11306400E94C3008FE39FE10197F1F700C000000F
S113065040E060E082E40E94C3008FE39FE10197E1
S1130660F1F700C000000895682F81E40E9488011A
S113067040E061E082E40E94C3000E941D030895EB
S113068041E060E081E40E94530041E061E081E4E4
S11306900E94530041E062E081E40E94530041E083
S11306A063E081E40E94530041E064E081E40E943D
S11306B0530041E065E081E40E94530041E066E0BC
S11306C081E40E94530041E067E081E40E9453000A
S11306D041E060E082E40E94530041E062E082E491
S11306E00E94530041E061E082E40E94530040E034
S11306F062E082E40E94C30088E30E94340381E044
S11307000E9434038EE00E9434038FE39CE9019736
S1130710F1F700C000000895682F81E40E94880169
S113072041E061E082E40E94C3000E941D03089539
S1130730CF93DF93EC018881882331F021960E94C6
S11307408C0389918111FBCFDF91CF91089581E0D2
S11307500E9434030895813019F48FE7860F06C090
S1130760823019F48FEB860F01C080E80E943403B5
S1130770089541E00E945300089541E00E94C3009F
S1130780089540E00E94C3000895CF93DF93CDB74E
S1130790DEB728970FB6F894DEBF0FBECDBF60E07A
S11307A083E40E94B90361E083E40E94B90362E038
S11307B083E40E94B9030E9440030E9474020E94D1
S11307C0E20980E790E00E94980361E082E00E94E1
S11307D0AB0381E890E00E9498032FEF33ED80E3B0
S11307E0215030408040E1F700C000000E94A70380
S11307F080E091E00E942C02813039F481E091E0A4
S11308000E942C02813009F4CAC08DE890E00E9455
S1130810980361E082E00E94AB0387E990E00E94C4
S113082098039FEFE3EDF0E39150E040F040E1F7EF
S113083000C000000E94A70382EA90E00E9498038F
S113084061E082E00E94AB0381EB90E00E94980398
S11308508FEF89838A838B838C839E012F5F3F4F25
S1130860790169011CE00E94B1028F3FE1F3F601B6
S113087081936F010E948C03FFEF25EA3EE0F15063
S113088020403040E1F700C00000612F82E00E9468
S1130890AB038AE20E948C038FEF91EEE4E0815077
S11308A09040E040E1F700C000001F5F1031D9F62E
S11308B044E050E0BE016F5F7F4F82E091E00E9410
S11308C0570261E080E091E00E944B020E94A7037E
S11308D08DEB90E00E949803FFEF29E638E1F15098
S11308E020403040E1F700C000000E94A70388ECDC
S11308F090E00E94980361E082E00E94AB0387EDE0
S113090090E00E9498031CE00E94B1028F3FE1F343
S1130910F70181937F010E948C03FFEF25EA3EE0FB
S1130920F15020403040E1F700C00000612F82E028
S11309300E94AB038AE20E948C038FEF91EEE4E005
S113094081509040E040E1F700C000001F5F10318B
S1130950D9F644E050E0BE016F5F7F4F86E091E03E
S11309600E94570261E081E091E00E944B020E94E4
S1130970A7038DEB90E00E949803FFEF29E638E18E
S1130980F15020403040E1F700C000000E94A7036E
S113099060E08AE091E00E944B02C12C05C08AE02D
S11309A091E00E942C02C82EF12C33243A940F2E8D
S11309B0F2E39F2EF02DD32C0F2EFAE0AF2EF02D64
S11309C00F2EF9E0BF2EF02D80918A02813001F5BF
S11309D00E94040A10928C0210928B0210928A02D6
S11309E061E083E40E94C10360E083E40E94C103E8
S11309F00E94A70383EE90E00E9498038FEF93ED8B
S1130A00E0E381509040E040E1F700C0000002C004
S1130A10F110B5C100E0132DF1E0CF1229C00E94FE
S1130A20A70383EF90E00E94980361E082E00E94B4
S1130A30AB0381E091E00E94980362E083E40E94AA
S1130A40BD0324E53DEC8DE293E02150304080402D
S1130A509040D9F700C000C0000062E083E40E9427
S1130A60C10360E08AE091E00E944B0200E0C12CE7
S1130A700E94A70381E191E00E94980361E082E073
S1130A800E94AB038FE191E00E9498031F3F29F479
S1130A900E94B102182F8F3FD9F380ED810F82306D
S1130AA088F00E94A7038FE291E00E949803EFEF81
S1130AB0F3ED20E3E150F0402040E1F700C00000F6
S1130AC01D2DAACFDD82DE82DF82D886D982DA822A
S1130AD0DB82DC82103321F0113309F4A6C04BC150
S1130AE0892C801A0E94A7038CE391E00E9498034A
S1130AF061E082E00E94AB0387E491E00E949803E6
S1130B003FEF83EC99E0315080409040E1F700C022
S1130B1000007E01E5E0EE0EF11C1CE00E94B10233
S1130B208F3FE1F3F70181937F010E948C03FFEF74
S1130B3025EA3EE0F15020403040E1F700C00000DB
S1130B40612F82E00E94AB038AE20E948C038FEF44
S1130B5091EEE4E081509040E040E1F700C00000F5
S1130B601F5F1031D9F644E050E0BE016F5F7F4F44
S1130B7082E091E00E94330244E0BE016F5F7F4F48
S1130B80CE0105960E94C408813021F50E94A70376
S1130B9083E591E00E94980361E082E00E94AB0348
S1130BA08CE391E00E949803FFEF29E638E1F150CD
S1130BB020403040E1F700C0000060E083E40E9480
S1130BC0BD030E94EE090E94A70300E01D2DFF242F
S1130BD0F394D2C00F5F0E94A7038EE591E00E94B8
S1130BE0980361E082E00E94AB0389E691E00E94F1
S1130BF09803882D0E948C038FEF93EDE0E38150DE
S1130C009040E040E1F700C000000E94A7038A94EE
S1130C10033008F467CF61E08AE091E00E944B0260
S1130C201D2DCC24C394F12CA7C0892C801A0E94BA
S1130C30A70385E791E00E94980361E082E00E94A7
S1130C40AB0380E891E00E949803FFEF23EC39E0C6
S1130C50F15020403040E1F700C000007E0185E003
S1130C60E80EF11C1CE00E94B1028F3FE1F3F70192
S1130C7081937F010E948C03FFEF25EA3EE0F1504F
S1130C8020403040E1F700C00000612F82E00E9464
S1130C90AB038AE20E948C038FEF91EEE4E0815073
S1130CA09040E040E1F700C000001F5F1031D9F62A
S1130CB044E050E0BE016F5F7F4F86E091E00E9408
S1130CC0330244E0BE016F5F7F4FCE0105960E9460
S1130CD0C408813029F50E94A70383E591E00E94AE
S1130CE0980361E082E00E94AB0385E791E00E94F3
S1130CF09803FFEF29E638E1F15020403040E1F756
S1130D0000C0000061E083E40E94BD030E94EE097C
S1130D100E94A70300E01D2D6894FF24F1F82CC065
S1130D200F5F0E94A7038CE891E00E94980361E0A2
S1130D3082E00E94AB0389E691E00E949803882D2B
S1130D400E948C038FEF93EDE0E381509040E040EC
S1130D50E1F700C000000E94A7038A94033008F45E
S1130D6066CF61E08AE091E00E944B021D2DCC2405
S1130D70C394F12C01C0F12CFF2009F44DCE01E005
S1130D800F2EF7E05F2EF02D6894882483F80F2E41
S1130D90F6E0EF2EF02D0F2EF3E07F2EF02D689469
S1130DA0662462F80F2EF5E04F2EF02DA6C1FA014D
S1130DB03197EA30F10508F0A4C1E65DFF4F0C94C9
S1130DC00E0A882309F4FEC0082D97C10E94A703C8
S1130DD087E991E00E94980361E082E00E94AB03FE
S1130DE0F1E0FF1205C087EA91E00E94980307C072
S1130DF022E0F21204C087EB91E00E9498038F2D49
S1130E000E94E608182F3FEF81EE94E031508040B5
S1130E109040E1F700C00000113309F476C11233A9
S1130E2009F475C1133309F474C1143341F4E2E0D5
S1130E30FE1609F470C1F1E0FF127FC16EC11F3FBD
S1130E4099F00E94A70387EC91E00E9498032FEF8A
S1130E5039E688E1215030408040E1F700C00000CD
S1130E601153143008F449C180918A02882309F48B
S1130E70ADCF43C10E94A70383ED91E00E94980384
S1130E8061E082E00E94AB0386EE91E00E94980349
S1130E908F2D0E94E608182F9FEFE1EEF4E09150A9
S1130EA0E040F040E1F700C00000813309F437C1AD
S1130EB0823309F436C1833309F435C1843309F428
S1130EC034C18F3F99F00E94A70387EC91E00E9400
S1130ED098032FEF39E688E1215030408040E1F754
S1130EE000C000001153143008F407C180918A0235
S1130EF0882309F4BFCF01C10E94A70387EF91E0C3
S1130F000E94980361E082E00E94AB038AE092E0D1
S1130F100E9498038F2D0E94E608182F9FEFE1EEA0
S1130F20F4E09150E040F040E1F700C0000081336C
S1130F3009F4FDC0823309F4FCC0803309F4FBC01A
S1130F408F3F99F00E94A70387EC91E00E949803D9
S1130F502FEF39E688E1215030408040E1F700C0AE
S1130F6000001053133008F4C8C080918A0288230B
S1130F7019F2C3C06F2D872D0E94050901E0BDC081
S1130F806F2D862D0E94050901E0B7C06F2D842DB9
S1130F900E94050901E0B1C06F2D8E2D0E94050944
S1130FA092E0F91609F4A2C002E0A7C06F2D852DC6
S1130FB00E94050902E0A1C06F2D8B2D0E94050936
S1130FC0082D9BC00E94A7038BE192E00E94980326
S1130FD08FED0E948C0383E40E948C036BE081E01C
S1130FE00E94AB03EFEFF3EC29E0E150F040204026
S1130FF0E1F700C000008F2D0E94E6083FEF94E364
S1131000ECE031509040E040E1F700C000009091E6
S11310108A02913009F46CC010ED180F1A3080F078
S11310200E94A70387EC91E00E949803FFEF29E652
S113103038E1F15020403040E1F700C000004FC0DB
S11310400E948C038F2D0E94E6089FEFE4E3FCE0EE
S11310509150E040F040E1F700C0000090918A0216
S1131060913009F447C000ED080F0A3080F00E9467
S1131070A70387EC91E00E9498032FEF39E688E1FB
S1131080215030408040E1F700C0000028C00E9499
S11310908C03110F812F880F880F180F010F80E424
S11310A00E94E9099FEFE3ECF9E09150E040F04041
S11310B0E1F700C00000802F0E94E9090E94A70305
S11310C089E292E00E9498032FEF39E688E12150EB
S11310D030408040E1F700C0000001110DC0809154
S11310E08A02882309F46ECF082D07C001E005C0E9
S11310F0082D03C0082D01C0082D80918A02402FBD
S113110050E0813009F053CE5FCC072DF6CF062D89
S1131110F4CF042DF2CF0E2DF0CF02E0EECF0E2D42
S1131120ECCF052DEACF082DE8CF01E0E6CF0A2D5C
S1131130E4CF0B2DE2CF02E0E0CF0E94A70387ECBF
S113114091E00E9498039FEFE9E6F8E19150E040B6
S1131150F040E1F700C00000D0CF1F920F920FB60D
S11311600F9211248F939F9380918B0290918C0204
S1131170019690938C0280938B029F918F910F9094
S11311800FBE0F901F9018954423D1F0FC013081BD
S1131190FB012081321316C0FC013196DB0111964C
S11311A0415050E04F5F5F4F480F591F04C02191D9
S11311B09D91291309C0E417F507C9F781E0089543
S11311C081E0089580E0089580E00895CF93C82FCA
S11311D080918B0290918C028031974210F0C13043
S11311E049F080918B0290918C028031974238F0C3
S11311F0C23029F481E080938A028FEF04C00E94F8
S1131200B1028F3F29F3CF9108958F929F92AF92AD
S1131210BF92CF92DF92EF92FF920F931F93CF93DF
S1131220DF93D82FE62E00E0F12C10E00F2EF3E12F
S11312308F2EF02D0F2EF5E19F2EF02D0F2EF4E1C1
S1131240AF2EF02D0F2EF6E1BF2EF02D0F2EF1E173
S1131250CF2EF02D0F2EF2E1DF2EF02D0E94A703EA
S1131260D53011F128F4D33049F0D43091F047C08F
S1131270D73081F120F1D930C1F141C08AE392E045
S11312800E94980301E30F2EF1E2FF2EF02D1C2D96
S113129036C083E492E00E94980302E30F2EF2E248
S11312A0FF2EF02D1D2D2BC08CE492E00E9498039C
S11312B003E30F2EF3E2FF2EF02D182D20C085E559
S11312C092E00E94980304E30F2EF4E2FF2EF02D27
S11312D01A2D15C08EE592E00E94980305E30F2EA7
S11312E0F5E2FF2EF02D192D0AC084E692E00E944B
S11312F0980306E30F2EF6E2FF2EF02D1B2D812F0F
S11313000E94E9092FEF81EE94E021508040904043
S1131310E1F700C000008FEF0E94E909813029F451
S113132081E792E00E94980304C084E792E00E945F
S1131330980361E082E00E94AB0388E792E00E9498
S113134098038E2D0E94E608C82F2FEF81EE94E0BB
S1131350215080409040E1F700C00000C13321F4E7
S11313608F2D0E94E90921C0C23321F4802F0E94ED
S1131370E9091BC0CF3FA1F0C033B9F00E94A70315
S113138087EC91E00E9498032FEF89E698E12150C1
S113139080409040E1F700C00000C053C33028F003
S11313A080918A02882309F459CFDF91CF911F914C
S11313B00F91FF90EF90DF90CF90BF90AF909F90F0
S11313C08F90089587B3806B87BB8DB181658DB98C
S11313D008958FB9779BFECF8FB108958EE48CBFAB
S11313E083B7886083BF83B78F7B83BF83B78160F4
S11313F083BF83B78D7F83BF83B7846083BF7894B3
S113140089B7826089BF089583B78E7F83BF83B70E
S11314108D7F83BF83B78B7F83BF0895EE0FFF1F3C
S10F14200590F491E02D0994F894FFCF9E
S113142C3738392F3435362A3132332D41303D2B70
S113143C57656C636F6D6520746F20736D61727486
S113144C00686F6D652073797374656D004C6F67FC
S113145C696E20666F720066697273742074696DAC
S113146C65005365742041646D696E2070617373FB
S113147C0041646D696E20706173733A005061733E
S113148C73205361766564005365742047756573E6
S113149C74205061737300477565737420506173C5
S11314AC733A0053657373696F6E2054696D656F7D
S11314BC7574004C6F67696E20626C6F636B656446
S11314CC0077616974203230207365636F6E6473C6
S11314DC0053656C656374206D6F6465203A00304D
S11314EC3A41646D696E20313A47756573740057DF
S11314FC726F6E6720696E7075742E0041646D692D
S113150C6E206D6F646500456E7465722050617356
S113151C733A005269676874207061737300577270
S113152C6F6E672050617373005472696573206C1D
S113153C6566743A004775657374206D6F64650055
S113154C456E74657220706173733A0057726F6ED6
S113155C67207061737300313A526F6F6D312032B2
S113156C3A526F6F6D3200333A526F6F6D332034D1
S113157C3A4D6F72652000333A526F6F6D332034DD
S113158C3A526F6F6D340057726F6E6720696E70CC
S113159C757400313A526F6F6D3420202020323A2A
S11315AC545620202000333A41697220436F6E64F4
S11315BC2E343A52455400313A5365742074656D97
S11315CC70657261747572652000323A436F6E7483
S11315DC726F6C2020303A52455400536574207459
S11315EC656D702E3A5F5F200054656D7065726195
S11315FC747572652053656E7400526F6F6D312073
S113160C533A00526F6F6D3220533A00526F6F6D24
S113161C3320533A00526F6F6D3420533A005456B2
S113162C20533A0041697220436F6E642E20533A62
S113163C004F4E004F464600312D4F6E20322D4F39
S10D164C666620302D52455400005C
S9030000FC
